:100000000C947E010C94AF010C94AF010C94AF01E1
:100010000C94AF010C94AF010C94AF010C94AF01A0
:100020000C94AF010C94AF010C94AF010C94AF0190
:100030000C94AF010C94AF010C94AF010C94AF0180
:100040000C94AF010C94AF010C94AF010C94AF0170
:100050000C94AF010C94AF010C94AF010C94B70455
:100060000C94AF010C94AF010C94AF010C94AF0150
:100070000C94AF010C94AF010C94AF010C94AF0140
:100080000C9401050C94AF010C94AF010C94AF01DA
:100090000C94AF010C94AF010C94AF010C94AF0120
:1000A0000C94AF010C94AF010C94AF010C94AF0110
:1000B0000C94AF010C94AF010C94AF010C94AF0100
:1000C0000C94AF010C94AF010C94AF010C94AF01F0
:1000D0000C94AF010C94AF010C94AF010C94AF01E0
:1000E0000C94AF010C9452020C941F020C94000269
:1000F0000C9417020C9426020C94E0020C944C020F
:100100000C9405020C9401090C941B020C9430020F
:100110000C9456020C94B3020C943E020C944404CA
:100120000C9436020C942C020C9444020C94480259
:100130000C943A020C94E1020C94230200000A0B86
:1001400002090C0D0E080703040100000000000066
:10015000000000000000000000000000000000009F
:10016000000000000000000012111000000000005C
:10017000000000000000000000000000000000007F
:100180000000303000303100303200303300303485
:10019000003035003036003037003038003039005C
:1001A000313000313100313200313300313400312F
:1001B0003500313600313700313800313900323006
:1001C0000032310032320032330032340032350036
:1001D00032360032370032380032390033300033E3
:1001E00031003332003333003334003335003336DB
:1001F00000333700333800333900343000343100F5
:1002000034320034330034340034350034360034B2
:10021000370034380034390035300035310035329C
:1002200000353300353400353500353600353700BC
:10023000353800353900363000000022002500280E
:10024000002B002E003100340002010000050108DF
:10025000010B0100002100240027002A002D00309E
:1002600000330001010000040107010A0105050532
:1002700005070508080808020202020A0A0808041D
:10028000040404010101010101010103030303034B
:10029000030303040707070C0C0C0C0C0C0C0C02DA
:1002A00002020206060606060606060B0B0B0B0BE1
:1002B0000B0B0B01021020200808102040102040DA
:1002C000800201020108040201010204081020401A
:1002D0008080402010080402018004020180402038
:1002E0001008040201080402010102040810204061
:1002F00080010204081020408000010911241FBE63
:10030000CFEFD1E2DEBFCDBF00E00CBF12E0A0E036
:10031000B2E0E2EAF2E100E00BBF02C007900D920A
:10032000AE31B107D9F723E0AEE1B2E001C01D92D2
:10033000A030B207E1F711E0CEE7D1E000E006C05F
:1003400021970109802FFE010E943309CD37D10783
:1003500080E00807A9F70E9475050C944F090C94DA
:10036000000090E0FC01ED54FD4F249183599D4F16
:10037000FC018491882399F090E0880F991FFC017B
:10038000ED5AFD4FA591B491FC01E75CFD4F8591BD
:1003900094918FB7F894EC91E22BEC938FBF089572
:1003A000282F30E0F901E45CFE4F9491F901ED54FF
:1003B000FD4F449123593D4FF9012491222309F423
:1003C00035C0992311F191509231F8F4E92FF0E002
:1003D0008827E251FE4F8F4F0C9433091F022302EE
:1003E000000217021B02050226022C02300236020E
:1003F0003A023E024402480205024C0252025602F0
:10040000809180008F7780938000E22FF0E0EE0FE4
:10041000FF1FE75CFD4FA591B4918FB7F894EC9165
:10042000611148C040954E234C938FBF0895809131
:1004300080008F7DE8CF80918000877FE4CF84B5F6
:100440008F7784BDE2CF84B58F7DFBCF8091B000E4
:100450008F778093B000D9CF8091B0008F7DF9CF96
:10046000809190008F7780939000CFCF8091900003
:100470008F7DF9CF80919000877FF5CF8091A0008C
:100480008F778093A000C1CF8091A0008F7DF9CF9E
:100490008091A000877FF5CF809120018F77809396
:1004A0002001B3CF809120018F7DF9CF8091200171
:1004B000877FF5CF4E2BB8CF3FB7F89480913002AD
:1004C00090913102A0913202B091330226B5A89BDF
:1004D00005C02F3F19F00196A11DB11D3FBFBA2FD6
:1004E000A92F982F8827BC01CD01620F711D811D96
:1004F000911D42E0660F771F881F991F4A95D1F71B
:1005000008958F929F92AF92BF92CF92DF92EF9217
:10051000FF924B015C010E945C026B017C010E9416
:100520005C026C197D098E099F09683E7340810544
:100530009105A8F321E0821A9108A108B10888EE7C
:10054000C80E83E0D81EE11CF11C81149104A104A3
:10055000B10429F7FF90EF90DF90CF90BF90AF905C
:100560009F908F900895AF92BF92CF92DF92EF92BB
:10057000FF920F931F93CF93DF936C017B018B014D
:10058000040F151FEB015E01AE18BF08C017D1079D
:1005900059F06991D601ED91FC910190F081E02D27
:1005A000C6011995892B79F7C501DF91CF911F916C
:1005B0000F91FF90EF90DF90CF90BF90AF90089594
:1005C000089590E080E00895FC0101900020E9F793
:1005D0003197AF01481B590BBC0188EE92E00C9497
:1005E000B302CF93DF93EC0160E08E810E94D001D3
:1005F00061E08E810E94D00160E08E810E94D00176
:100600008BE891E00197F1F7DF91CF910895CF92B8
:10061000DF92EF92FF920F931F93CF93DF936C01C2
:100620007C0187E0E80EF11CD0E0C0E0062F10E06E
:10063000B8010C2E02C0759567950A94E2F76170B7
:10064000F70181917F010E94D0012196C430D1052C
:1006500079F7C601DF91CF911F910F91FF90EF9035
:10066000DF90CF900C94F102CF92DF92EF92FF9245
:100670000F931F93CF93DF93EC01F62E642F8C81A1
:100680000E94D0018D818F3F19F060E00E94D0015F
:100690000F2D10E08F8584FF25C06E0187E0C80E06
:1006A000D11CF12CE12CB8010E2C02C07595679578
:1006B0000A94E2F76170F60181916F010E94D00106
:1006C000FFEFEF1AFF0A88E0E816F10461F7CE01A8
:1006D000DF91CF911F910F91FF90EF90DF90CF901E
:1006E0000C94F102B80184E0759567958A95E1F75D
:1006F000CE010E9407036F2DCE01DF91CF911F9194
:100700000F91FF90EF90DF90CF900C94070340E0A3
:10071000682F88EE92E00C94340381E00E948703F6
:100720008BE39FE10197F1F70895CF93DF93823038
:1007300029F49091F70298609093F7028093FB025E
:100740001092FC0280E48093FD0280E18093FE021F
:1007500080E58093FF028091EC020E94B1018091BC
:10076000ED028F3F11F00E94B1018091EE020E94D4
:10077000B101C8EED2E09E01285E32408091F702BE
:1007800084FD0AC084E090E02196281739073CF4E4
:100790008E810E94B101EFCF88E090E0F5CF8BE32E
:1007A0009DE00197F1F760E08091EC020E94D0019A
:1007B00060E08091EE020E94D0018091ED028F3FB7
:1007C00019F060E00E94D0018091F70284FD34C0EE
:1007D00063E088EE92E00E940703CBE4D6E4CE010A
:1007E0000197F1F763E088EE92E00E9407032197FA
:1007F000F1F763E088EE92E00E94070383E592E060
:100800000197F1F762E088EE92E00E940703809181
:10081000F70280620E94870384E08093F8028CE0F4
:100820000E9487030E948D0382E08093F90286E094
:10083000DF91CF910C94870380620E9487038BE441
:1008400096E40197F1F78091F70280620E94870396
:1008500083E592E00197F1F78091F70280620E94B0
:100860008703D5CF643008F063E09091FB026917ED
:1008700010F06FEF690FE62FF0E0E851FD4F94891B
:10088000890F80680C94870341E00E94340381E063
:1008900090E00895CF93DF93EC01FC01649141E077
:1008A00088EE92E00E943403FE013196649141E0AB
:1008B00088EE92E0DF91CF910C943403BC016F5F1E
:1008C0007F4FFB01EE0FFF1FE60FF71F099744F460
:1008D000ED57FE4F649141E088EE92E00C943403B2
:1008E000CF018E579E4F0C944A040F931F93CF93C2
:1008F000DF938C0162E070E00E941F09682F81E0A5
:100900000E943204C8010E945E048AE192E00E94C3
:10091000E402E801CC0FDD1FC00FD11FCC5CDD4F1E
:100920008A8113E0819FC00111248E579E4F0E943F
:100930004A046AE388EE92E00E9444048981819F20
:10094000C00111248E579E4F0E944A046AE388EE2C
:1009500092E00E9444048881819FC00111248E5737
:100960009E4FDF91CF911F910F910C944A041F92DB
:100970000F920FB60F9211242F933F938F939F9353
:10098000AF93BF9380912C0290912D02A0912E02E3
:10099000B0912F0230912B0223E0230F2D3758F511
:1009A0000196A11DB11D20932B0280932C029093E0
:1009B0002D02A0932E02B0932F02809130029091CD
:1009C0003102A0913202B09133020196A11DB11DF6
:1009D0008093300290933102A0933202B09333029D
:1009E000BF91AF919F918F913F912F910F900FBE2B
:1009F0000F901F90189526E8230F0296A11DB11D98
:100A0000D2CF1F920F920FB60F9211240BB60F92F6
:100A10002F933F934F935F936F937F938F939F9306
:100A2000AF93BF93CF93EF93FF93809124028823DA
:100A3000E9F1809128028F5F809328028C3361F462
:100A40009091290280912A02109228029F5F9C3384
:100A500009F440C09093290260E083E00E943204D0
:100A600080912A02C3E08C9FC00111248E579E4FB3
:100A70000E944A046AE388EE92E00E944404809156
:100A800029028C9FC00111248E579E4F0E944A0458
:100A90006AE388EE92E00E944404809128028C9FD1
:100AA000C00111248E579E4F0E944A04FF91EF917E
:100AB000CF91BF91AF919F918F917F916F915F91F6
:100AC0004F913F912F910F900BBE0F900FBE0F9043
:100AD0001F901895109229028F5F883119F080932A
:100AE0002A02BACF10922A02B7CF789484B58260D6
:100AF00084BD84B5816084BD85B5826085BD85B5C2
:100B0000816085BD80916E00816080936E0010923F
:100B100081008091810082608093810080918100BA
:100B2000816080938100809180008160809380004B
:100B30008091B10084608093B1008091B0008160A9
:100B40008093B000809191008260809391008091A9
:100B500091008160809391008091900081608093EA
:100B600090008091A10082608093A1008091A100FB
:100B700081608093A1008091A00081608093A0009B
:100B80008091210182608093210180912101816007
:100B900080932101809120018160809320018091C8
:100BA0007A00846080937A0080917A0082608093DA
:100BB0007A0080917A00816080937A0080917A0037
:100BC000806880937A001092C100F894109290008F
:100BD0008DE08093910082E08093710088E09DE336
:100BE000909399008093980078948FE08093070108
:100BF00080EF8093080182E00E94950360E083E02B
:100C00000E94320480E192E00E94E40285E10E94A9
:100C1000B10160E085E10E94D001B0E0EB2EB0E0D0
:100C2000FB2ECAE0CC2ED12C01E010E054E4452E7E
:100C300063E4562E72E4672EE1E49E2EF0E38F2EDD
:100C4000A9E37A2E809128028B3371F461E085E16B
:100C50000E94D00168EE73E080E090E00E94810283
:100C600060E085E10E94D001C091010280910601FF
:100C7000C13009F0D3C0803F09F476C062E370E070
:100C800080E090E00E94810210920102C093000275
:100C90008EEF809308010000909108018091060179
:100CA000981320C08DEF80930801000090910801F7
:100CB00080910601981316C08BEF80930801000005
:100CC000909108018091060198130CC087EF8093E2
:100CD000080100009091080180910601981302C05C
:100CE00010920002809100028130D9F580910601B6
:100CF0008E3E21F481E38093260230C0809106016C
:100D00008E3D11F482E3F7CF809106018E3B11F402
:100D100083E3F1CF809106018D3E11F484E3EBCFA4
:100D2000809106018D3D11F485E3E5CF80910601A8
:100D30008D3B11F486E3DFCF809106018B3E11F4E9
:100D400087E3D9CF809106018B3D11F488E3D3CF9F
:100D5000809106018B3B91F57092260281E0809391
:100D6000270280EF80930801809127028823F9F001
:100D70001092270220912602243409F05CC0809151
:100D80002502811106C08091240291E08927809379
:100D9000240261E085E10E94D00168EC70E080E00F
:100DA00090E00E94810260E085E10E94D001E114A0
:100DB000F10409F447CF0E94000038CF809106016A
:100DC000873D19F480922602C9CF809106018E37A3
:100DD00019F490922602C2CF809106018D3719F442
:100DE00060922602BBCF809106018B3719F4509296
:100DF0002602B4CF80910601873719F4409226026B
:100E0000ADCF80910601873B11F485E474CF8091CA
:100E10000601873E09F0A2CF86E46DCF803F09F03E
:100E2000A3CF68EC70E080E090E00E94810281E056
:100E30008093010299CF233439F5809125028111E5
:100E4000A8CF109228021092290210922A0260E084
:100E500083E00E94320482E891E00E944A046AE33F
:100E600088EE92E00E94440482E891E00E944A04E5
:100E70006AE388EE92E00E94440482E891E00E94D6
:100E80004A041092240285CF253409F0CAC080910B
:100E90002502882309F49CC0C0912202D09123022C
:100EA0001C161D060CF07DC0A0902002B0902102FF
:100EB000AC16BD060CF475C00E948D03FE01EE0F4A
:100EC000FF1FEC0FFD1FEC5CFD4FD081D09328027B
:100ED000318030922902C281C0932A0260E083E00F
:100EE0000E94320443E0242EC29DC00111248E577B
:100EF0009E4F0E944A046AE388EE92E00E944404F6
:100F0000329CC00111248E579E4F0E944A046AE30E
:100F100088EE92E00E944404D29DC00111248E57B5
:100F20009E4F0E944A0461E085E10E94D00168EC76
:100F300070E080E090E00E94810260E085E10E9424
:100F4000D00164EF71E080E090E00E94810261E0F6
:100F500085E10E94D00168EC70E080E090E00E94A2
:100F6000810260E085E10E94D00110922502109379
:100F7000030200930202109223021092220261E007
:100F800080E00E9432041A141B040CF002CF6DE4BE
:100F900088EE92E00E944404C50101970E945E041D
:100FA000F8CE1093030200930202109223021092D3
:100FB000220261E085E10E94D00168EE73E080E0EA
:100FC00090E00E94810260E085E10E94D001E1CEC4
:100FD000C0912002D0912102CC33D1050CF0D9CEA2
:100FE000FE01EE0FFF1FEC0FFD1FEC5CFD4F80912B
:100FF0002A02828380912902818380912802808342
:10100000CE010196909321028093200261E080E05E
:101010000E9432046DE488EE92E00E944404CE0106
:10102000BDCF263469F4109221021092200261E0B3
:1010300080E00E94320489E192E00E94E402A9CE9D
:10104000B0902502213409F081C00E948D031093D5
:101050000302009302021092230210922202C09116
:101060002002D0912102B11031C080911E029091D6
:101070001F028C179D075CF40E94750480911E026C
:1010800090911F02019690931F0280931E028091FF
:101090001E0290911F02209120023091210282179E
:1010A00093075CF40E94750480911E0290911F02C8
:1010B000019690931F0280931E0210922402809149
:1010C000250291E089278093250263CE60E083E0CA
:1010D0000E94320480912A0293E0B92E8B9DC001B8
:1010E00011248E579E4F0E944A046AE388EE92E0D4
:1010F0000E944404809129028B9DC00111248E57C7
:101100009E4F0E944A046AE388EE92E00E944404E3
:10111000809128028B9DC00111248E579E4F0E9402
:101120004A0410921F0210921E0261E080E00E94A9
:1011300032041C161D060CF66DE488EE92E00E9447
:101140004404CE0101970E945E04B7CF2234A1F57A
:10115000BB2009F41ECEC0911E02D0911F028091C7
:10116000200290912102C817D90774F40E948D03C0
:10117000CE010E94750480911E0290911F0201967B
:1011800090931F0280931E0280911E0290911F0275
:101190002091200230912102821793070CF0F9CDA3
:1011A0000E94750480911E0290911F0201969093F7
:1011B0001F0280931E02EDCDBB2009F4EACD4091C1
:1011C0000202509103026091220270912302469F15
:1011D000C001479F900D569F900D1124820F911DC5
:1011E00027FD9A954A30510551F0C19790932302FB
:1011F00080932202D0920302C0920202CACD879746
:10120000F5CFE8EEF2E01382128288E092E091835B
:10121000808386E3848387E3858388E3868389E309
:1012200087838AE380878BE381878CE382871386B9
:10123000148615861686178681E00C94950397FB15
:10124000072E16F4009407D077FD09D00E943B09C1
:1012500007FC05D03EF4909581959F4F08957095B9
:1012600061957F4F0895EE0FFF1F881F8BBF07907A
:10127000F691E02D1994AA1BBB1B51E107C0AA1FD0
:10128000BB1FA617B70710F0A61BB70B881F991F27
:101290005A95A9F780959095BC01CD010895F894D1
:0212A000FFCF7E
:1012A20001010100000000004404B302E102E00277
:0E12B20030303A30303A30300020202000003A
:00000001FF
