:020000040000FA
:100000000C9435000C945D000C945D000C945D0024
:100010000C945D000C945D000C945D000C945D00EC
:100020000C945D000C945D000C945D000C945D00DC
:100030000C945D000C945D000C945D000C945D00CC
:100040000C94C3010C945D000C9433020C940D02CB
:100050000C9465020C945D000C945D000C945D00A2
:100060000C945D000C945D00BA0311241FBECFEF09
:10007000D4E0DEBFCDBF11E0A0E0B1E0EEEDF7E0EF
:1000800002C005900D92AE31B107D9F722E0AEE182
:10009000B1E001C01D92A63CB207E1F710E0C5E354
:1000A000D0E004C02197FE010E94E703C433D107CA
:1000B000C9F70E9470020C94ED030C9400003FB746
:1000C000F8948091C2029091C302A091C402B091B1
:1000D000C50226B5A89B05C02F3F19F00196A11DAA
:1000E000B11D3FBFBA2FA92F982F8827BC01CD0182
:1000F000620F711D811D911D42E0660F771F881FE1
:10010000991F4A95D1F708958F929F92AF92BF920F
:10011000CF92DF92EF92FF924B015C010E945F0051
:100120006B017C010E945F006C197D098E099F099B
:10013000683E734081059105A8F321E0821A910879
:10014000A108B10888EEC80E83E0D81EE11CF11C9E
:1001500081149104A104B10429F7FF90EF90DF907E
:10016000CF90BF90AF909F908F900895AF92BF9225
:10017000CF92DF92EF92FF920F931F93CF93DF9373
:100180006C017B018B01040F151FEB015E01AE18A2
:10019000BF08C017D10759F06991D601ED91FC91C4
:1001A0000190F081E02DC6010995892B79F7C501F1
:1001B000DF91CF911F910F91FF90EF90DF90CF9043
:1001C000BF90AF900895FC01538D448D252F30E0F2
:1001D000842F90E0821B930B541710F0CF96089554
:1001E00001970895FC01918D828D981761F0A28D81
:1001F000AE0FBF2FB11D5D968C91928D9F5F9F7347
:10020000928F90E008958FEF9FEF0895FC01918DFC
:10021000828D981731F0828DE80FF11D858D90E069
:1002200008958FEF9FEF0895FC01918D228D892F06
:1002300090E0805C9F4F821B91098F7399270895EE
:1002400080E292E00E94140121E0892B09F420E071
:10025000822F089580E090E0892B29F00E942001F0
:1002600081110C9400000895FC01A48DA80FB92FF2
:10027000B11DA35ABF4F2C91848D90E001968F73CE
:100280009927848FA689B7892C93A089B1898C91ED
:10029000837080648C93938D848D981306C002883C
:1002A000F389E02D80818F7D80830895EF92FF9206
:1002B0000F931F93CF93DF93EC0181E0888F9B8D89
:1002C0008C8D98131AC0E889F989808185FF15C043
:1002D0009FB7F894EE89FF896083E889F989808166
:1002E0008370806480839FBF81E090E0DF91CF9135
:1002F0001F910F91FF90EF900895F62E0B8D10E057
:100300000F5F1F4F0F731127E02E8C8D8E110CC0C5
:100310000FB607FCFACFE889F989808185FFF5CF10
:10032000CE010E943401F1CFEB8DEC0FFD2FF11DBA
:10033000E35AFF4FF0829FB7F8940B8FEA89FB894D
:1003400080818062CFCFCF93DF93EC01888D8823AB
:10035000B9F0AA89BB89E889F9898C9185FD03C028
:10036000808186FD0DC00FB607FCF7CF8C9185FF0D
:10037000F2CF808185FFEDCFCE010E943401E9CF1D
:10038000DF91CF9108951F920F920FB60F92112413
:100390002F933F938F939F93AF93BF938091BE0210
:1003A0009091BF02A091C002B091C1023091BD02F4
:1003B00023E0230F2D3758F50196A11DB11D209381
:1003C000BD028093BE029093BF02A093C002B0937F
:1003D000C1028091C2029091C302A091C402B09167
:1003E000C5020196A11DB11D8093C2029093C30264
:1003F000A093C402B093C502BF91AF919F918F911A
:100400003F912F910F900FBE0F901F90189526E8E7
:10041000230F0296A11DB11DD2CF1F920F920FB6CE
:100420000F9211242F933F934F935F936F937F937A
:100430008F939F93AF93BF93EF93FF9380E292E0EC
:100440000E943401FF91EF91BF91AF919F918F91E5
:100450007F916F915F914F913F912F910F900FBEC0
:100460000F901F9018951F920F920FB60F921124A4
:100470002F938F939F93EF93FF93E0913002F0912E
:1004800031028081E0913602F091370282FD1BC07B
:100490009081809139028F5F8F7320913A02821789
:1004A00041F0E0913902F0E0E05EFD4F958F8093DE
:1004B0003902FF91EF919F918F912F910F900FBE75
:1004C0000F901F9018958081F4CF1F920F920FB656
:1004D0000F9211245A980F900FBE0F901F901895ED
:1004E000CF93DF93CDB7DEB72A970FB6F894DEBF70
:1004F0000FBECDBF789484B5826084BD84B5816021
:1005000084BD85B5826085BD85B5816085BD8091DE
:100510006E00816080936E00109281008091810056
:10052000826080938100809181008160809381004E
:10053000809180008160809380008091B100846010
:100540008093B1008091B00081608093B000809171
:100550007A00846080937A0080917A008260809330
:100560007A0080917A00816080937A0080917A008D
:10057000806880937A001092C10068EE73E080E09A
:1005800090E00E94840087E08AB988EF8BB9E091FF
:100590003002F091310282E08083E0912C02F091F0
:1005A0002D021082E0912E02F0912F028FEC8083B9
:1005B00010923802E0913402F091350286E0808397
:1005C000E0913202F0913302808180618083E0917A
:1005D0003202F0913302808188608083E0913202A0
:1005E000F0913302808180688083E0913202F09143
:1005F000330280818F7D80838091C10084648093E9
:10060000C1008091C00081608093C00061E070E013
:1006100080E090E00E94840086E380931F02EEE178
:10062000F1E030E020E099E3822F48E050E087FFDE
:1006300043C0880F892741505109C9F781932F5F23
:100640003F4F211581E0380779F7FE0131966F01A0
:100650001E01FBE02F0E311C93E0892E912C27E028
:10066000422E512C80E0682E80E0782E80E292E0CD
:100670000E941401892BB1F080E292E00E94F20006
:10068000909100019923D1F090911F0298130AC014
:100690001092000181E080931E028091C0008E7F45
:1006A0008093C0006114710409F30E942001882323
:1006B000E9F20E940000D6CF880FBDCF80911E02C4
:1006C000882381F310921E0291E0909300015A9AC0
:1006D00061E070E080E090E00E9484008AE0E1E068
:1006E000F1E0D60101900D928A95E1F7F12CE12C11
:1006F0008601E1E0EE16F10421F50C151D0581F5EA
:100700008981A82EB12CB40101C0660F8A95EAF741
:1007100080E292E00E945601F501E25EFE4F6081A8
:1007200080E292E00E9456010F5F1F4F02151305F1
:1007300001F7FFEFEF1AFF0A85E0E816F104C1F6B2
:10074000B1CFF2E0EF16F10459F4C8018C199D09FC
:10075000029731F48B81A82EB12CB2016829D4CF35
:10076000F801B0806B2D80E292E00E945601EB2DE3
:10077000F0E0D3CFE0E2F2E01382128288EE93E061
:10078000A0E0B0E084839583A683B7838FE091E0F7
:100790009183808385EC90E09587848784EC90E05A
:1007A0009787868780EC90E0918B808B81EC90E03E
:1007B000938B828B82EC90E0958B848B86EC90E01F
:1007C000978B868B118E128E138E148E0895EE0FDA
:1007D000FF1F0590F491E02D0994F894FFCF0101DB
:1007E00004FF0001FF01000002000000005601B6F6
:0C07F00000E300A3011401F20006010068
:103800000C94341C0C94511C0C94511C0C94511CA1
:103810000C94511C0C94511C0C94511C0C94511C74
:103820000C94511C0C94511C0C94511C0C94511C64
:103830000C94511C0C94511C0C94511C0C94511C54
:103840000C94511C0C94511C0C94511C0C94511C44
:103850000C94511C0C94511C0C94511C0C94511C34
:103860000C94511C0C94511C11241FBECFEFD4E0BA
:10387000DEBFCDBF11E0A0E0B1E0E4EAFEE302C0AC
:1038800005900D92A230B107D9F712E0A2E0B1E0A5
:1038900001C01D92AD30B107E1F70E94ED1C0C9400
:1038A000511F0C94001C482F10920A0280E08417CC
:1038B000E0F4582F2D9A28EE33E080E991E001974B
:1038C000F1F721503040C9F72D9828EE33E080E918
:1038D00091E00197F1F721503040C9F7852F8F5FB4
:1038E000582F841738F380930A020895EF92FF92BD
:1038F0000F931F93EE24FF2487018091C00087FD62
:1039000017C00894E11CF11C011D111D81E0E8168F
:1039100082E1F8068AE7080780E0180770F3E09173
:103920000201F091030109958091C00087FFE9CF62
:103930008091C600992787FD90951F910F91FF9068
:10394000EF900895982F8091C00085FFFCCF909351
:10395000C60008950E94761C803271F080910401A7
:103960008F5F80930401853009F00895E091020192
:10397000F09103010995089584E10E94A21C80E161
:103980000E94A21C0895CF93C82F0E94761C8032FB
:1039900041F0809104018F5F80930401853081F4B0
:1039A0000AC084E10E94A21C8C2F0E94A21C80E10C
:1039B0000E94A21C05C0E0910201F091030109954B
:1039C000CF910895CF93C82FC150CF3F21F00E94CF
:1039D000761CC150E0F7CF910895CFEFD4E0DEBF61
:1039E000CDBF000083E38093C4001092C50088E13E
:1039F0008093C10086E08093C2005098589A259A1F
:103A000083E00E94531C0E94761C8033B1F1813305
:103A1000B9F1803409F455C0813409F45BC08234B3
:103A200009F46DC0853409F470C0803531F18235F8
:103A300021F1813511F1853509F46BC0863509F422
:103A400073C0843609F47AC0843709F4CEC0853750
:103A500009F429C1863709F44AC0809104018F5FB7
:103A600080930401853079F6E0910201F091030121
:103A700009950E94761C803351F60E94AA1CC3CF80
:103A80000E94761CC82F803241F784E10E94A21C5C
:103A900081E40E94A21C86E50E94A21C82E50E948D
:103AA000A21C8C2F0E94A21C89E40E94A21C83E508
:103AB0000E94A21C80E50E94A21C80E10E94A21C20
:103AC000A2CF0E94761C8638C0F20E94761C0E940B
:103AD000AA1C99CF0E94761C803809F486C18138CF
:103AE00009F487C1823809F488C1883921F080E05F
:103AF0000E94C31C88CF83E00E94C31C84CF84E152
:103B00000E94E21C0E94AA1C7ECF85E00E94E21C5B
:103B1000F9CF0E94761C809306010E94761C809348
:103B200007010E94AA1C6FCF0E94761C803309F403
:103B3000CAC083E00E94E21C80E0DACF0E94761CBB
:103B4000809309020E94761C8093080280910C02E7
:103B50008E7F80930C020E94761C853409F4C4C0C9
:103B600000E010E0809108029091090218161906F1
:103B700070F4C8E0D1E00E94761C89930F5F1F4F5C
:103B8000809108029091090208171907A0F30E947A
:103B9000761C803209F061CF80910C0280FFAEC0AC
:103BA000E0910601F0910701EE0FFF1F00E010E029
:103BB00020910802309109021216130680F4A8E041
:103BC000B1E0F999FECFF2BDE1BD8D9180BDFA9AC9
:103BD000F99A31960F5F1F4F0217130790F3F09376
:103BE0000701E093060184E166CF0E94761C809372
:103BF00009020E94761C8093080280910601909130
:103C00000701880F991F90930701809306010E9476
:103C1000761C853409F46EC080910C028E7F8093EF
:103C20000C020E94761C803209F0EDCE84E10E94E5
:103C3000A21C00E010E02091080230910902121647
:103C4000130608F03ACFE0910601F0910701809148
:103C50000C0280FF1FC0F999FECFF2BDE1BDF89ABA
:103C600080B50E94A21CE0910601F09107013196F7
:103C7000F0930701E09306012091080230910902B8
:103C80000F5F1F4F0217130708F017CF80910C0228
:103C900080FDE1CF869580FFB4C03196F093070197
:103CA000E0930601EDCF0E94761C803209F0D5CE5C
:103CB00084E10E94A21C8EE10E94A21C84E90E9461
:103CC000A21C86E0F8CE0E94761C0E94761CC82FAB
:103CD0000E94761CCC2309F47CC0C13009F47DC05D
:103CE00086E00E94C31C8FCE80910C02816080937D
:103CF0000C0236CF80910C02816091CF8091070138
:103D000087FD6FC010920B02809106019091070110
:103D1000880F991F909307018093060180910802F4
:103D200080FF09C08091080290910902019690934A
:103D3000090280930802F894F999FECF1127E091C7
:103D40000601F0910701C8E0D1E08091080290914E
:103D50000902103091F40091570001700130D9F33D
:103D600003E000935700E89500915700017001307F
:103D7000D9F301E100935700E8950990199000915B
:103D8000570001700130D9F301E000935700E89526
:103D90001395103498F011270091570001700130ED
:103DA000D9F305E000935700E895009157000170A2
:103DB0000130D9F301E100935700E895329602975C
:103DC00009F0C7CF103011F00296E5CF112484E13D
:103DD00072CE8EE10E94C31C16CE84E90E94C31CE1
:103DE00012CE81E080930B028FCF82E00E94C31C31
:103DF0000ACE81E00E94C31C06CE80E10E94C31C53
:103E000002CE84910E94A21C2091080230910902E6
:103E1000E0910601F091070140CFCF930E94761CFC
:103E2000C82F0E94A21CC13614F0C75503C0C0336E
:103E30000CF0C0538C2F992787FD9095CF91089552
:103E40000F931F930E940D1F082F112707FD109538
:103E500002951295107F1027007F10270E940D1FDA
:103E6000800F992787FD90951F910F910895CF930B
:103E7000C82F85958595859585958A3034F0895A22
:103E8000CF70CA3034F0C95A05C0805DCF70CA30D7
:103E9000D4F7C05D0E94A21C8C2F0E94A21CCF915F
:063EA0000895FFCF800031
:00000001FF
