:100000000C9424010C9438010C9438010C943801A0
:100010000C9438010C9438010C9438010C9438017C
:100020000C9438010C9438010C9438010C9438016C
:100030000C9438010C9438010C9438010C9438015C
:100040000C9438010C9438010C9438010C9438014C
:100050000C9438010C9438010C9438010C949501DF
:100060000C9438010C9438010C9438010C9438012C
:100070000C9438010C9438010C9438010C9438011C
:100080000C9438010C9438010C9438010C9438010C
:100090000C9438010C9438010C9438010C943801FC
:1000A0000C9438010C9438010C9438010C943801EC
:1000B0000C9438010C9438010C9438010C943801DC
:1000C0000C9438010C9438010C9438010C943801CC
:1000D0000C9438010C9438010C9438010C943801BC
:1000E0000C9438010C94F2020C940A030C94E10273
:1000F0000C94C1020C940E030C94E8020C941403AB
:100100000C94C6020C94F8020C94FC020C940003AC
:100110000C94EE020C94E5020C94D9020C94DD02CE
:100120000C9418030C9406030000220025002800FC
:100130002B002E00310034000201000005010801EF
:100140000B0100002100240027002A002D003000B0
:10015000330001010000040107010A010000200032
:100160002300260029002C002F003200000100008F
:10017000030106010901050505050705080808082A
:10018000020202020A0A080804040404010101012F
:10019000010101010303030303030303040707072A
:1001A0000C0C0C0C0C0C0C0C0202020206060606CF
:1001B000060606060B0B0B0B0B0B0B0B010210209C
:1001C000200808102040102040800201020108048D
:1001D0000201010204081020408080402010080421
:1001E000020180040201804020100804020108047A
:1001F00002010102040810204080010204081020BE
:10020000408000000A0B02090C0D0E0807030401D0
:1002100000000000000000000000000000000000DE
:1002200000000000000000000000000000001211AB
:1002300010000000000000000000000000000000AE
:10024000000000000000000011241FBECFEFD1E22B
:10025000DEBFCDBF00E00CBF22E0A0E0B2E001C0F5
:100260001D92A930B207E1F70E94DF010C9424032C
:100270000C9400003FB7F89480910502909106021B
:10028000A0910702B091080226B5A89B05C02F3F98
:1002900019F00196A11DB11D3FBFBA2FA92F982FAC
:1002A0008827BC01CD01620F711D811D911D42E0A7
:1002B000660F771F881F991F4A95D1F708958F926F
:1002C0009F92AF92BF92CF92DF92EF92FF920E94E5
:1002D0003A014B015C018AE8C82E82E0D82EE12C5D
:1002E000F12C0E943A01681979098A099B09683E34
:1002F000734081059105A8F321E0C21AD108E108F5
:10030000F10888EE880E83E0981EA11CB11CC11470
:10031000D104E104F10429F7FF90EF90DF90CF9032
:10032000BF90AF909F908F9008951F920F920FB63D
:100330000F9211242F933F938F939F93AF93BF936B
:100340008091010290910202A0910302B0910402F7
:100350003091000223E0230F2D3758F50196A11D9F
:10036000B11D209300028093010290930202A0939A
:100370000302B09304028091050290910602A091BD
:100380000702B09108020196A11DB11D80930502DC
:1003900090930602A0930702B0930802BF91AF9119
:1003A0009F918F913F912F910F900FBE0F901F90B3
:1003B000189526E8230F0296A11DB11DD2CF78947F
:1003C00084B5826084BD84B5816084BD85B582605A
:1003D00085BD85B5816085BD80916E00816080930B
:1003E0006E00109281008091810082608093810074
:1003F0008091810081608093810080918000816084
:10040000809380008091B10084608093B1008091DE
:10041000B00081608093B0008091910082608093F1
:100420009100809191008160809391008091900073
:100430008160809390008091A10082608093A100F0
:100440008091A10081608093A1008091A0008160D3
:100450008093A0008091210182608093210180918E
:10046000210181608093210180912001816080932E
:10047000200180917A00846080937A0080917A00D4
:10048000826080937A0080917A00816080937A0004
:1004900080917A00806880937A001092C1008FEF7B
:1004A00081B912B8C7EED1E0FE01249101EA11E052
:1004B000F80184918823C9F090E0880F991FFC010E
:1004C000EE5BFE4FA591B491FC01E85DFE4F4591B6
:1004D00054919FB7F8943C91822F809583238C93FD
:1004E000FA018081282B20839FBF4DE2E42E42E059
:1004F000F42E50E8B52E60E4A62E70E0C72E70E012
:10050000D72EF7018491FE012491F8019491911165
:1005100019C0B2B880E092B1992309F443C088238E
:1005200019F00E945F01A2B80E945F0182B190E0C1
:10053000959587959595879582B992B181E092308E
:1005400049F7E9CF882311F181508231F8F4E82F7F
:10055000F0E08827E155FD4F8F4F0C941C03E1021A
:10056000E502C102D902DD02C602E802EE02F20291
:10057000F802FC02000306030A03C6020E0314037A
:100580001803809180008F7780938000E92FF0E03E
:10059000EE0FFF1FE45AFE4FA591B4918C912823D2
:1005A00009F4B7CFC114D10409F4ABCF0E94000005
:1005B000A8CF809180008F7DE7CF80918000877FDA
:1005C000E3CF84B58F7784BDE1CF84B58F7DFBCF3A
:1005D0008091B0008F778093B000D8CF8091B00029
:1005E0008F7DF9CF809190008F7780939000CECF50
:1005F000809190008F7DF9CF80919000877FF5CF1B
:100600008091A0008F778093A000C0CF8091A00040
:100610008F7DF9CF8091A000877FF5CF8091200159
:100620008F7780932001B2CF809120018F7DF9CF09
:1006300080912001877FF5CFEE0FFF1F881F8BBFB2
:0C0640000790F691E02D1994F894FFCF7C
:00000001FF
