:100000000C9435000C945D000C945D000C945D0024
:100010000C945D000C945D000C945D000C945D00EC
:100020000C945D000C945D000C945D000C945D00DC
:100030000C945D000C945D000C945D000C945D00CC
:100040000C94C3010C945D000C9433020C940D02CB
:100050000C9465020C945D000C945D000C945D00A2
:100060000C945D000C945D00B30311241FBECFEF10
:10007000D4E0DEBFCDBF11E0A0E0B1E0E0EDF7E0FD
:1000800002C005900D92AE32B107D9F722E0AEE280
:10009000B1E001C01D92A63DB207E1F710E0C5E353
:1000A000D0E004C02197FE010E94E003C433D107D1
:1000B000C9F70E9470020C94E6030C9400003FB74D
:1000C000F8948091D2029091D302A091D402B09181
:1000D000D50226B5A89B05C02F3F19F00196A11D9A
:1000E000B11D3FBFBA2FA92F982F8827BC01CD0182
:1000F000620F711D811D911D42E0660F771F881FE1
:10010000991F4A95D1F708958F929F92AF92BF920F
:10011000CF92DF92EF92FF924B015C010E945F0051
:100120006B017C010E945F006C197D098E099F099B
:10013000683E734081059105A8F321E0821A910879
:10014000A108B10888EEC80E83E0D81EE11CF11C9E
:1001500081149104A104B10429F7FF90EF90DF907E
:10016000CF90BF90AF909F908F900895AF92BF9225
:10017000CF92DF92EF92FF920F931F93CF93DF9373
:100180006C017B018B01040F151FEB015E01AE18A2
:10019000BF08C017D10759F06991D601ED91FC91C4
:1001A0000190F081E02DC6010995892B79F7C501F1
:1001B000DF91CF911F910F91FF90EF90DF90CF9043
:1001C000BF90AF900895FC01538D448D252F30E0F2
:1001D000842F90E0821B930B541710F0CF96089554
:1001E00001970895FC01918D828D981761F0A28D81
:1001F000AE0FBF2FB11D5D968C91928D9F5F9F7347
:10020000928F90E008958FEF9FEF0895FC01918DFC
:10021000828D981731F0828DE80FF11D858D90E069
:1002200008958FEF9FEF0895FC01918D228D892F06
:1002300090E0805C9F4F821B91098F7399270895EE
:1002400080E392E00E94140121E0892B09F420E070
:10025000822F089580E090E0892B29F00E942001F0
:1002600081110C9400000895FC01A48DA80FB92FF2
:10027000B11DA35ABF4F2C91848D90E001968F73CE
:100280009927848FA689B7892C93A089B1898C91ED
:10029000837080648C93938D848D981306C002883C
:1002A000F389E02D80818F7D80830895EF92FF9206
:1002B0000F931F93CF93DF93EC0181E0888F9B8D89
:1002C0008C8D98131AC0E889F989808185FF15C043
:1002D0009FB7F894EE89FF896083E889F989808166
:1002E0008370806480839FBF81E090E0DF91CF9135
:1002F0001F910F91FF90EF900895F62E0B8D10E057
:100300000F5F1F4F0F731127E02E8C8D8E110CC0C5
:100310000FB607FCFACFE889F989808185FFF5CF10
:10032000CE010E943401F1CFEB8DEC0FFD2FF11DBA
:10033000E35AFF4FF0829FB7F8940B8FEA89FB894D
:1003400080818062CFCFCF93DF93EC01888D8823AB
:10035000B9F0AA89BB89E889F9898C9185FD03C028
:10036000808186FD0DC00FB607FCF7CF8C9185FF0D
:10037000F2CF808185FFEDCFCE010E943401E9CF1D
:10038000DF91CF9108951F920F920FB60F92112413
:100390002F933F938F939F93AF93BF938091CE0200
:1003A0009091CF02A091D002B091D1023091CD02B4
:1003B00023E0230F2D3758F50196A11DB11D209381
:1003C000CD028093CE029093CF02A093D002B0933F
:1003D000D1028091D2029091D302A091D402B09127
:1003E000D5020196A11DB11D8093D2029093D30234
:1003F000A093D402B093D502BF91AF919F918F91FA
:100400003F912F910F900FBE0F901F90189526E8E7
:10041000230F0296A11DB11DD2CF1F920F920FB6CE
:100420000F9211242F933F934F935F936F937F937A
:100430008F939F93AF93BF93EF93FF9380E392E0EB
:100440000E943401FF91EF91BF91AF919F918F91E5
:100450007F916F915F914F913F912F910F900FBEC0
:100460000F901F9018951F920F920FB60F921124A4
:100470002F938F939F93EF93FF93E0914002F0911E
:1004800041028081E0914602F091470282FD1BC04B
:100490009081809149028F5F8F7320914A02821769
:1004A00041F0E0914902F0E0E05DFD4F958F8093CF
:1004B0004902FF91EF919F918F912F910F900FBE65
:1004C0000F901F9018958081F4CF1F920F920FB656
:1004D0000F9211245A980F900FBE0F901F901895ED
:1004E000CF93DF93CDB7DEB76A970FB6F894DEBF30
:1004F0000FBECDBF789484B5826084BD84B5816021
:1005000084BD85B5826085BD85B5816085BD8091DE
:100510006E00816080936E00109281008091810056
:10052000826080938100809181008160809381004E
:10053000809180008160809380008091B100846010
:100540008093B1008091B00081608093B000809171
:100550007A00846080937A0080917A008260809330
:100560007A0080917A00816080937A0080917A008D
:10057000806880937A001092C10068EE73E080E09A
:1005800090E00E94840087E08AB988EF8BB9E091FF
:100590004002F091410282E08083E0913C02F091C0
:1005A0003D021082E0913E02F0913F028FEC808389
:1005B00010924802E0914402F091450286E0808367
:1005C000E0914202F0914302808180618083E0915A
:1005D0004202F0914302808188608083E091420270
:1005E000F0914302808180688083E0914202F09123
:1005F000430280818F7D80838091C10084648093D9
:10060000C1008091C00081608093C00061E070E013
:1006100080E090E00E94840087E180932F02EEE268
:10062000F1E030E020E099E3822F48E050E087FFDE
:1006300041C0880F892741505109C9F781932F5F25
:100640003F4F211581E0380779F7FE0131966F01A0
:100650002E01FBE14F0E511C85E0682E712C90E0BD
:10066000892E90E0992E3324339480E392E00E9407
:100670001401892BA9F080E392E00E94F20090918E
:1006800000019923C9F090912F02981309C010928C
:10069000000130922E028091C0008E7F8093C000B6
:1006A0008114910411F30E9420018823F1F20E9429
:1006B0000000DBCF880FBFCF80912E02882381F30B
:1006C00010922E02309200015A9A61E070E080E0B0
:1006D00090E00E9484008AE1E1E0F1E0D60101901F
:1006E0000D928A95E1F710E000E0760101301105E6
:1006F00089F4C7018C199D09BA8C60E0499719F0FB
:10070000F701B0806B2D80E392E00E945601EB2D43
:10071000F0E016C00230110599F7C7018C199D0948
:10072000049771F78D81A82EB12CB301602B01C005
:10073000660F8A95EAF780E392E00E945601F50180
:10074000E25DFE4F608180E392E00E945601FFEF80
:10075000EF1AFF0AE414F50449F60F5F1F4F053046
:10076000110519F69DCFE0E3F2E01382128288EEC4
:1007700093E0A0E0B0E084839583A683B7838FE104
:1007800091E09183808385EC90E09587848784EC69
:1007900090E09787868780EC90E0918B808B81EC4E
:1007A00090E0938B828B82EC90E0958B848B86EC2F
:1007B00090E0978B868B118E128E138E148E089577
:1007C000EE0FFF1F0590F491E02D0994F894FFCFF0
:1007D0000101020C020405020006070804020900D8
:1007E0000209040A0B0B070C0E0D0800000000564E
:0E07F00001B600E300A3011401F200060100AF
:00000001FF
