:100000000C9458000C9480000C9480000C94800098
:100010000C9480000C9480000C9480000C94800060
:100020000C9480000C9480000C9480000C94800050
:100030000C9480000C9480000C9480000C94800040
:100040000C9421050C9480000C9491050C946B0584
:100050000C94E2060C9480000C9480000C948000B8
:100060000C94C3050C9480000000000025002800BB
:100070002B00040404040404040402020202020229
:10008000030303030303010204081020408001025C
:1000900004081020010204081020000000080002DB
:1000A0000100000304070000000000000000ED064E
:1000B00011241FBECFEFD4E0DEBFCDBF11E0A0E022
:1000C000B1E0EEE3F2E102C005900D92A632B10775
:1000D000D9F723E0A6E2B1E001C01D92AA39B20728
:1000E000E1F710E0C8E5D0E004C02197FE010E94CE
:1000F0001709C735D107C9F70E9426070C941D09B7
:100100000C94000090E0FC01E656FF4F2491FC01A6
:10011000EA57FF4F3491FC01EE58FF4FE491EE2374
:10012000C9F0222339F0233001F1A8F4213019F16C
:10013000223029F1F0E0EE0FFF1FE859FF4FA591A3
:10014000B4918FB7F894EC91611126C030953E239D
:100150003C938FBF08952730A9F02830C9F0243090
:1001600049F7809180008F7D03C0809180008F7758
:1001700080938000DFCF84B58F7784BDDBCF84B5DB
:100180008F7DFBCF8091B0008F778093B000D2CF6E
:100190008091B0008F7DF9CF3E2BDACF3FB7F89436
:1001A00080917B0290917C02A0917D02B0917E02B1
:1001B00026B5A89B05C02F3F19F00196A11DB11DC2
:1001C0003FBFBA2FA92F982F8827BC01CD01620FFE
:1001D000711D811D911D42E0660F771F881F991FB9
:1001E0004A95D1F708958F929F92AF92BF92CF9286
:1001F000DF92EF92FF924B015C010E94CE006B01F7
:100200007C010E94CE006C197D098E099F09683E11
:10021000734081059105A8F321E0821A9108A10895
:10022000B10888EEC80E83E0D81EE11CF11C8114D1
:100230009104A104B10429F7FF90EF90DF90CF90D3
:10024000BF90AF909F908F90089580917F02909182
:100250008002891B990B089508950895AF92BF926B
:10026000CF92DF92EF92FF920F931F93CF93DF9382
:100270006C017B018B01040F151FEB015E01AE18B1
:10028000BF08C017D10759F06991D601ED91FC91D3
:100290000190F081E02DC6010995892B79F7C50100
:1002A000DF91CF911F910F91FF90EF90DF90CF9052
:1002B000BF90AF900895FC01538D448D252F30E001
:1002C000842F90E0821B930B541710F0CF96089563
:1002D00001970895FC01918D828D981761F0A28D90
:1002E000AE0FBF2FB11D5D968C91928D9F5F9F7356
:1002F000928F90E008958FEF9FEF0895FC01918D0C
:10030000828D981731F0828DE80FF11D858D90E078
:1003100008958FEF9FEF0895FC01918D228D892F15
:1003200090E0805C9F4F821B91098F7399270895FD
:1003300081EF92E00E948C0121E0892B09F420E0FA
:10034000822F089580E090E0892B29F00E94980187
:1003500081110C9400000895FC01A48DA80FB92F01
:10036000B11DA35ABF4F2C91848D90E001968F73DD
:100370009927848FA689B7892C93A089B1898C91FC
:10038000837080648C93938D848D981306C002884B
:10039000F389E02D80818F7D80830895EF92FF9215
:1003A0000F931F93CF93DF93EC0181E0888F9B8D98
:1003B0008C8D98131AC0E889F989808185FF15C052
:1003C0009FB7F894EE89FF896083E889F989808175
:1003D0008370806480839FBF81E090E0DF91CF9144
:1003E0001F910F91FF90EF900895F62E0B8D10E066
:1003F0000F5F1F4F0F731127E02E8C8D8E110CC0D5
:100400000FB607FCFACFE889F989808185FFF5CF1F
:10041000CE010E94AC01F1CFEB8DEC0FFD2FF11D51
:10042000E35AFF4FF0829FB7F8940B8FEA89FB895C
:1004300080818062CFCFCF93DF93EC01888D8823BA
:10044000B9F0AA89BB89E889F9898C9185FD03C037
:10045000808186FD0DC00FB607FCF7CF8C9185FF1C
:10046000F2CF808185FFEDCFCE010E94AC01E9CFB4
:10047000DF91CF91089520914701260F3327331F35
:1004800021323105ECF42091C702FC0190E080E0BC
:10049000243069F082E00895A09147012191AC01D8
:1004A000495D5E4FA40FB52FB11D2C9301968617A1
:1004B00098F380914701680F6093470180E00895A9
:1004C00081E008951092C70281E08093C6021092E5
:1004D000A10261E082E10E94820061E083E10E946A
:1004E0008200E9EBF0E080818E7F808380818D7FC8
:1004F000808388E48093B80085E48093BC000895ED
:10050000CF93DF9391E0909326018823B9F0C091B7
:10051000B800D091BA008091BC008A7B8093BC0067
:1005200060E082E10E94820060E083E10E9482003C
:100530000E946202D093BA00C093B800DF91CF91BD
:1005400008958F929F92AF92BF92CF92DF92EF92D7
:10055000FF920F931F93CF93DF93D091F002D1328C
:1005600008F0D7C0182FC091EF020E94CE006B0197
:100570007C018091C70281116BC082E08093C70229
:100580001093C6028FEF8093C5021092C402D093DD
:10059000C302AFECB2E0E3EAF2E080E0D81391C02E
:1005A0001092A2028091A202CC0FC82BC093A2028B
:1005B0008091A102813009F088C01092A1020E94AE
:1005C000CE006B017C018091A2028093BB008091E0
:1005D000C9029091CA02A091CB02B091CC02892BA2
:1005E0008A2B8B2BA1F00E94CE000091C9021091A2
:1005F000CA022091CB023091CC026C197D098E0980
:100600009F09061717072807390708F442C0809189
:10061000BC0083FDD8CF85EC8093BC000E94CE0047
:100620006B017C018091C702823009F450C0809137
:10063000C5028F3F09F46FC08091C502803209F472
:100640006CC08091C502803309F469C084E026C083
:100650008091C9029091CA02A091CB02B091CC02C4
:10066000892B8A2B8B2B09F484CF0E94CE0080909B
:10067000C9029090CA02A090CB02B090CC026C1933
:100680007D098E099F0986169706A806B90608F007
:1006900070CF8091C8020E94800285E01092CE0245
:1006A0001092F0021092CD02DF91CF911F910F9125
:1006B000FF90EF90DF90CF90BF90AF909F908F9082
:1006C00008959D9191938F5F69CF85EEA5CF80911D
:1006D000C9029091CA02A091CB02B091CC02892BA1
:1006E0008A2B8B2B09F49ECF0E94CE000091C90269
:1006F0001091CA022091CB023091CC026C197D0975
:100700008E099F09061717072807390708F08ACFAF
:10071000C0CF81E0C3CF80E0C1CF82E0BFCF83E014
:10072000BDCF81E00C94A1020895E09180028091F8
:100730007F02E81730F4F0E0EF57FD4F808190E042
:1007400008958FEF9FEF08959091800280917F022E
:100750002FEF3FEF981748F4E92FF0E0EF57FD4FE8
:10076000208130E09F5F90938002C9010895CF926D
:10077000DF92EF92FF920F931F93CF93DF937C0151
:10078000CB018A012091CD02222389F0EB016B017C
:10079000C40ED51ECC15DD0569F06991D701ED9128
:1007A000FC910190F081E02DC7010995F3CF642FF2
:1007B0000E943B02C801DF91CF911F910F91FF90E2
:1007C000EF90DF90CF900895CF93DF931F92CDB736
:1007D000DEB769832091CD022223F9F02091F00247
:1007E000203258F021E030E0FC013383228390E096
:1007F00080E00F90DF91CF9108958091CE02E82F95
:10080000F0E0E153FD4F998190838F5F8093CE029A
:100810008093F00281E090E0ECCF61E0CE010196A0
:100820000E943B02F7CF682F8EE893E00C94E4031C
:1008300090E080E00895CF92DF92EF92FF920F93C5
:100840001F93CF93DF93D82F0E94CE006B017C01C2
:100850008091C702811165C0CD2F81E08093C702CE
:100860008093C6029FEF9093C5021092C4029D0F21
:100870009093C3028093A2028091A202826A809325
:10088000A2028091A102813009F07FC01092A102E2
:100890000E94CE006B017C018091A2028093BB007C
:1008A0008091C9029091CA02A091CB02B091CC0272
:1008B000892B8A2B8B2BA1F00E94CE000091C902BC
:1008C0001091CA022091CB023091CC026C197D09A3
:1008D0008E099F09061717072807390708F442C031
:1008E0008091BC0083FDD8CF85EC8093BC000E9432
:1008F000CE006B017C018091C702813009F447C0B2
:100900008091C4028D1710F4C091C402A3EAB2E032
:10091000E1E8F2E080E08C1751F19D9191938F5FB7
:10092000FACF8091C9029091CA02A091CB02B091F6
:10093000CC02892B8A2B8B2B09F48ACF0E94CE0004
:100940000091C9021091CA022091CB023091CC02D1
:100950006C197D098E099F090617170728073907A3
:1009600008F076CF8091C8020E948002C0E0109209
:100970008002C0937F028C2FDF91CF911F910F9146
:10098000FF90EF90DF90CF90089585EEAECF8091ED
:10099000C9029091CA02A091CB02B091CC02892BDE
:1009A0008A2B8B2B09F4A7CF0E94CE000091C9029D
:1009B0001091CA022091CB023091CC026C197D09B2
:1009C0008E099F09061717072807390708F093CFE4
:1009D000C9CF85ED8093BC008091C9029091CA0275
:1009E000A091CB02B091CC020796A11DB11D23E0CE
:1009F000B695A795979587952A95D1F72091BC0034
:100A000024FD03C01092C70208954091C90250917D
:100A1000CA026091CB027091CC02452B462B472B2A
:100A200069F30097A105B10541F02AE22A95F1F793
:100A300000C00197A109B109E1CF8091C8020C94CF
:100A400080021F920F920FB60F9211242F933F93A3
:100A50008F939F93AF93BF93809177029091780289
:100A6000A0917902B0917A023091760223E0230FAF
:100A70002D3758F50196A11DB11D20937602809364
:100A8000770290937802A0937902B0937A028091D2
:100A90007B0290917C02A0917D02B0917E02019632
:100AA000A11DB11D80937B0290937C02A0937D02D7
:100AB000B0937E02BF91AF919F918F913F912F9103
:100AC0000F900FBE0F901F90189526E8230F0296E7
:100AD000A11DB11DD2CF1F920F920FB60F921124FC
:100AE0002F933F934F935F936F937F938F939F9336
:100AF000AF93BF93EF93FF9381EF92E00E94AC011D
:100B0000FF91EF91BF91AF919F918F917F916F91E5
:100B10005F914F913F912F910F900FBE0F901F90BB
:100B200018951F920F920FB60F9211242F938F9347
:100B30009F93EF93FF93E0910103F0910203808173
:100B4000E0910703F091080382FD1BC09081809122
:100B50000A038F5F8F7320910B03821741F0E0919E
:100B60000A03F0E0EF50FD4F958F80930A03FF9149
:100B7000EF919F918F912F910F900FBE0F901F902B
:100B800018958081F4CF1F920F920FB60F92112407
:100B90002F933F934F935F936F937F938F939F9385
:100BA000AF93BF93EF93FF938091B900887F803616
:100BB00009F44AC0F0F5883209F4A7C018F580316D
:100BC00009F49BC0B8F4882309F4F9C0883009F40B
:100BD00094C0FF91EF91BF91AF919F918F917F91C1
:100BE0006F915F914F913F912F910F900FBE0F909A
:100BF0001F901895883109F488C0803251F780938E
:100C0000C50214C0803409F49DC040F48033B9F3A8
:100C10008833F9F68093C50285ECB0C0803509F4BD
:100C200085C0883509F496C0883499F60E94E90495
:100C3000D0CF883909F48CC038F5883729F050F4C2
:100C4000883611F0803729F683E08093C70210922E
:100C5000690157C0883809F47BC0803919F08038A1
:100C600009F0B7CF80916901803208F071C0E0913E
:100C7000690181E08E0F809369018091BB00F0E0F3
:100C8000E75BFE4F80833DC0803B39F0E0F4803A63
:100C900009F479C0883A09F09CCF84E08093C702B8
:100CA0001092480110924701E0916C01F0916D01A2
:100CB00009958091470181110FC081E08093470120
:100CC0001092270109C0803C09F4A6CF883C09F4A2
:100CD000A3CF883B09F07DCFE091480181E08E0FE2
:100CE00080934801F0E0E95DFE4F80818093BB0076
:100CF000909148018091470129C08091A202809380
:100D0000BB0085EC8093BC0064CF9091C4028091BD
:100D1000C302981758F5E091C40281E08E0F8093CA
:100D2000C402F0E0ED55FD4F8081E9CFE091C402AF
:100D300081E08E0F8093C4028091BB00F0E0ED55FE
:100D4000FD4F80839091C4028091C3029817C8F22E
:100D500085E8D8CFE091C40281E08E0F8093C40271
:100D60008091BB00F0E0ED55FD4F80838091C6027D
:100D700081115CCF81E08093A10284EA8093BC0062
:100D80001092C70226CF85EC8093BC001092C70258
:100D900080916901803230F4E0916901F0E0E75B15
:100DA000FE4F10826091690170E0E0916A01F0915C
:100DB0006B0189E491E00995109269010ACF1092C4
:100DC000C50234CF1F920F920FB60F9211245A987A
:100DD0000F900FBE0F901F901895E1EFF2E0138275
:100DE000128288EE93E0A0E0B0E084839583A6832E
:100DF000B78325E031E03183208325EC30E035876F
:100E0000248724EC30E03787268720EC30E0318BD4
:100E1000208B21EC30E0338B228B22EC30E0358BC1
:100E2000248B26EC30E0378B268B118E128E138E9E
:100E3000148EEEE8F3E01382128284839583A683F6
:100E4000B78387E191E0918380830895789484B596
:100E5000826084BD84B5816084BD85B5826085BDB6
:100E600085B5816085BD80916E00816080936E0044
:100E70001092810080918100826080938100809136
:100E800081008160809381008091800081608093E7
:100E900080008091B10084608093B1008091B000A7
:100EA00081608093B00080917A00846080937A00A2
:100EB00080917A00826080937A0080917A008160CC
:100EC00080937A0080917A00806880937A001092F3
:100ED000C10068EE73E080E090E00E94F30087E0DC
:100EE0008AB988EF8BB9E0910103F091020382E0A7
:100EF0008083E091FD02F091FE021082E091FF02FA
:100F0000F09100038FEC808310920903E0910503B8
:100F1000F091060386E08083E0910303F0910403DF
:100F2000808180618083E0910303F09104038081DC
:100F300088608083E0910303F091040380818068DE
:100F40008083E0910303F091040380818F7D80838F
:100F50008091C10084648093C1008091C000816051
:100F60008093C00061E070E080E090E00E94F300B8
:100F700087E180937502EEE6F1E030E020E099E34E
:100F8000822F48E050E087FF5CC0880F89274150DE
:100F90005109C9F781932F5F3F4F211581E0380731
:100FA00079F71092800210927F021092CE02109276
:100FB000F0020E9462028CE291E090936D018093B6
:100FC0006C018DE291E090936B0180936A0181E066
:100FD0008093CD0281E58093EF0287E090E00E944C
:100FE000130483E290E00E9413040E94910300E046
:100FF00010E0C1E081E5F82E81EF92E00E948C01C3
:10100000892BA9F081EF92E00E946A019091000182
:101010009923C9F090917502981309C010920001AC
:10102000C09374028091C0008E7F8093C000011530
:10103000110511F30E9498018823F1F20E9400002B
:10104000DBCF880FA4CF80917402882381F31092A4
:101050007402C09300015A9A61E070E080E090E071
:101060000E94F300C093CD02F092EF021092CE02E4
:101070001092F00282E090E00E9413040E9491031B
:1010800083E090E00E941B0490917F028091800297
:101090009817A9F08EE893E00E94A4038F778093BD
:1010A00073028EE893E00E94A4038F77809372020C
:1010B0008EE893E00E94A4038F7380937102C09323
:1010C000CD021092CE021092F00285E090E00E94D4
:1010D00013040E94910381E090E00E941B04909110
:1010E0007F0280918002981739F08EE893E00E9489
:1010F000A4038F7380937002C093CD021092CE022E
:101100001092F00286E090E00E9413040E94910386
:1011100081E090E00E941B0490917F028091800208
:10112000981739F08EE893E00E94A4038F718093A2
:101130006F02C093CD021092CE021092F00287E0AF
:1011400090E00E94130480E00E94A10281E090E000
:101150000E941B0490917F0280918002981731F0C9
:101160008EE893E00E94A40380936E02D0917302F4
:101170006D2F81EF92E00E94CE01ED2FF0E0E25959
:10118000FE4F608181EF92E00E94CE01D091720209
:101190006D2F81EF92E00E94CE01ED2FF0E0E25939
:1011A000FE4F608181EF92E00E94CE01D0917102EA
:1011B0006D2F81EF92E00E94CE01ED2FF0E0E25919
:1011C000FE4F608181EF92E00E94CE01D0917002CB
:1011D0006D2F81EF92E00E94CE01ED2FF0E0E259F9
:1011E000FE4F608181EF92E00E94CE01D0916F02AC
:1011F0006D2F81EF92E00E94CE01ED2FF0E0E259D9
:10120000FE4F608181EF92E00E94CE01D0916E028C
:101210006D2F81EF92E00E94CE01ED2FF0E0E259B8
:10122000FE4F608181EF92E00E94CE0100CFEE0F71
:0E123000FF1F0590F491E02D0994F894FFCF74
:10123E000100000000CE012E015B011B028C016A31
:10124E00017E0100000000E403B703180494032597
:06125E0001A4039503004A
:00000001FF
