:100000000C9427010C9458010C9458010C9458013D
:100010000C9458010C9458010C9458010C945801FC
:100020000C9458010C9458010C9458010C945801EC
:100030000C9458010C943B030C9458010C945801F7
:100040000C9458010C9458010C9458010C945801CC
:100050000C9458010C94FE020C9458010C94B402B8
:100060000C9458010C9458010C9458010C945801AC
:100070000C9458010C9458010C9458010C9458019C
:100080000C9458010C9458010C9458010C9458018C
:100090000C9458010C9458010C9458010C9458017C
:1000A0000C9458010C9458010C9458010C9458016C
:1000B0000C9458010C9458010C9458010C9458015C
:1000C0000C9458010C9458010C9458010C9458014C
:1000D0000C9458010C9458010C9458010C9458013C
:1000E0000C9458010C948D010C9478010C949D0192
:1000F0000C94A1010C9414050C94AF010C948A018A
:100100000C9482010C9486010C947E010C94B9012C
:100110000C94A5010C94B3010C94BD010C949701AF
:100120000C94AB010C94B8010C94930100002100D5
:10013000240027002A002D003000330001010000B8
:10014000040107010A010000200023002600290005
:100150002C002F00320000010000030106010901FC
:1001600000002200250028002B002E003100340062
:1001700002010000050108010B0105050505070541
:1001800008080808020202020A0A08080404040413
:10019000010101010101010103030303030303033F
:1001A000040707070C0C0C0C0C0C0C0C02020202CE
:1001B00006060606060606060B0B0B0B0B0B0B0BB7
:1001C0000102102020080810204010204080020169
:1001D000020108040201010204081020408080404E
:1001E000201008040201800402018040201008044D
:1001F00002010804020101020408102040800102EB
:1002000004081020408000000A0B02090C0D0E08A3
:1002100007030401000000000000000000000000CF
:1002200000000000000000000000000000000000CE
:10023000000012111000000000000000000000008B
:100240000000000000000000000000001405112460
:100250001FBECFEFD1E2DEBFCDBF00E00CBF12E08A
:10026000A0E0B2E0E0E5FAE000E00BBF02C00790DA
:100270000D92AC30B107D9F722E0ACE0B2E001C09A
:100280001D92A334B207E1F711E0C7E2D1E000E02C
:1002900006C021970109802FFE010E941E05C6326B
:1002A000D10780E00807A9F70E94A4030C94260553
:1002B0000C9400008150823108F05AC0E82FF0E021
:1002C0008827EA59FE4F8F4F0C941E0586018A013C
:1002D00078017E018201B8018D01930197019D0192
:1002E000A101A501AB01AF01B801B301B901BD0185
:1002F000809180008F7780938000089580918000A6
:100300008F7DF9CF80918000877FF5CF84B58F777F
:1003100084BD089584B58F7DFBCF8091B0008F7729
:100320008093B00008958091B0008F7DF9CF8091C7
:1003300090008F77809390000895809190008F7D3A
:10034000F9CF80919000877FF5CF8091A0008F77C3
:100350008093A00008958091A0008F7DF9CF8091B7
:10036000A000877FF5CF809120018F7780932001B7
:100370000895809120018F7DF9CF80912001877FA2
:10038000F5CF1F93CF93DF93E2E2F2E09491ECED8F
:10039000F1E0D491E6E9F1E0C491CC23B9F0182F53
:1003A000992319F0892F0E945A01EC2FF0E0EE0FEB
:1003B000FF1FE05AFE4FA591B4918FB7F894EC91CE
:1003C000111108C0D095DE23DC938FBFDF91CF9150
:1003D0001F910895DE2BF8CFCF93DF93282F30E0C5
:1003E000F901EA5FFD4F8491F901E054FE4FD49189
:1003F000F901E658FE4FC491CC23A1F081110E946F
:100400005A01EC2FF0E0EE0FFF1FEA5BFE4FA591C3
:10041000B491EC91ED2381E090E009F480E0DF916C
:10042000CF91089580E090E0FACFCF93DF9390E0F2
:10043000FC01E054FE4F249186589E4FFC018491AC
:100440008823D1F090E0880F991FFC01E45DFE4FF6
:10045000A591B491FC01E05AFE4FC591D491623050
:1004600071F49FB7F8943C91822F809583238C93ED
:10047000E8812E2B28839FBFDF91CF9108958FB7FE
:10048000F894EC912E2B2C938FBFF6CF3FB7F894B6
:1004900080913F0290914002A0914102B0914202AE
:1004A00026B5A89B05C02F3F19F00196A11DB11DCF
:1004B0003FBFBA2FA92F982F8827BC01CD01620F0B
:1004C000711D811D911D42E0660F771F881F991FC6
:1004D0004A95D1F708958F929F92AF92BF92CF9293
:1004E000DF92EF92FF924B015C010E9446026B018A
:1004F0007C010E9446026C197D098E099F09683EA5
:10050000734081059105A8F321E0821A9108A108A2
:10051000B10888EEC80E83E0D81EE11CF11C8114DE
:100520009104A104B10429F7FF90EF90DF90CF90E0
:10053000BF90AF909F908F900895E0E08A3018F0C0
:100540008A50EF5FFBCFA62FB0E0AC5CBD4FF0E070
:10055000EE5FFD4F90819C93E82FF0E0EE5FFD4F42
:10056000808111968C9308951F920F920FB60F926F
:1005700011242F933F938F939F93AF93BF938091B9
:100580003B0290913C02A0913D02B0913E0230911D
:100590003A0223E0230F2D3758F50196A11DB11D16
:1005A00020933A0280933B0290933C02A0933D0239
:1005B000B0933E0280913F0290914002A09141028F
:1005C000B09142020196A11DB11D80933F0290930C
:1005D0004002A0934102B0934202BF91AF919F911C
:1005E0008F913F912F910F900FBE0F901F901895F4
:1005F00026E8230F0296A11DB11DD2CF1F920F92A4
:100600000FB60F9211240BB60F928F93EF93FF93B7
:1006100080910002880F8F7349F1809300028091CE
:100620000E028F5F863021F180930E02E0910E0260
:100630008E2F8D7F813031F4F0E0EC5CFD4F8081B6
:1006400080588083809100028BB9E0910E02F0E027
:10065000EC5CFD4F808185B9FF91EF918F910F90F8
:100660000BBE0F900FBE0F901F90189581E0D5CF55
:1006700010920E02DBCF1F920F920FB60F92112431
:100680000BB60F922F933F934F935F936F937F938C
:100690008F939F93AF93BF93EF93FF93809101024A
:1006A0008823C1F080910C0290910D02803F91054A
:1006B00009F044C080912F028F5F8C33F1F080935A
:1006C0002F0264E080912F020E949D0210920D0281
:1006D00010920C02FF91EF91BF91AF919F918F917A
:1006E0007F916F915F914F913F912F910F900BBE32
:1006F0000F900FBE0F901F90189510922F028091AF
:1007000030028F5F8C3341F08093300262E0809141
:1007100030020E949D02D5CF1092300280913102AA
:100720008F5F883141F08093310260E08091310227
:100730000E949D02EBCF10923102F7CF0196909369
:100740000D0280930C02C6CF789484B5826084BD7C
:1007500084B5816084BD85B5826085BD85B58160C5
:1007600085BD80916E00816080936E001092810043
:1007700080918100826080938100809181008160FE
:1007800080938100809180008160809380008091BF
:10079000B10084608093B1008091B000816080934B
:1007A000B0008091910082608093910080919100CF
:1007B000816080939100809190008160809390008F
:1007C0008091A10082608093A1008091A10081604E
:1007D0008093A1008091A00081608093A00080910F
:1007E00021018260809321018091210181608093A9
:1007F00021018091200181608093200180917A0005
:10080000846080937A0080917A00826080937A007D
:1008100080917A00816080937A0080917A0080686C
:1008200080937A001092C100F89461E08CE10E94FC
:10083000150280E00E94C10162E087E10E9415027A
:1008400062E088E10E94150262E089E10E941502DF
:1008500062E08AE10E9415028FEF8AB9909100024E
:100860009BB984B985B98091B60080648093B60045
:100870008FE18093B30082E08093B00095E0909385
:10088000B1008093700023E027BD84BD95BD8091A9
:100890006E00826080936E00789400E010E0C0915A
:1008A0000102CC23A1F080913802803C81F4809138
:1008B0003902803C61F481E00E94C10168EC70E083
:1008C00080E090E00E946B0280E00E94C10187E11D
:1008D0000E94EC01892BA9F410923302109232028B
:1008E000CC2309F497C01092010281E00E94C1015B
:1008F00068EA71E680E090E00E946B0280E00E946E
:10090000C10188E10E94EC01892B41F580912D0203
:1009100090912E028A3091050CF5FC01EE0FFF1F1D
:10092000E80FF91FE15FFD4F2091310222832091F2
:100930003002218320912F022083019690932E0272
:1009400080932D0281E00E94C10168EA71E680E097
:1009500090E00E946B0280E00E94C10189E10E9448
:10096000EC01892B51F410922E0210922D0268EAAC
:1009700071E680E090E00E946B028AE10E94EC0147
:10098000892B09F040C08091010281113CC0809107
:100990002D0290912E0218161906ACF52091320204
:1009A000309133028217930721F410923302109290
:1009B0003202E0903202F0903302E701CC0FDD1FEB
:1009C000CE0DDF1DC15FDD4F60E08A810E949D0278
:1009D00062E089810E949D0264E088810E949D02FC
:1009E0008FEFE81AF80AF0923302E092320281E0C7
:1009F0000E94C10168EA71E680E090E00E946B020B
:100A000080E00E94C1010115110509F448CF0E9440
:100A1000000045CF10922F02109230021092310246
:100A200081E08093010261CFE4E3F2E080EC808317
:100A3000818382838383848385830895EE0FFF1FE0
:100A4000881F8BBF0790F691E02D1994F894FFCF83
:0C0A50000101C0F9A4B0999282F88090D6
:00000001FF
